{
  "_format": "hh-sol-artifact-1",
  "contractName": "WavePortal",
  "sourceName": "contracts/WavePortal.sol",
  "abi": [
    {
      "inputs": [],
      "stateMutability": "nonpayable",
      "type": "constructor"
    },
    {
      "inputs": [],
      "name": "getTotalWaves",
      "outputs": [
        {
          "internalType": "uint256",
          "name": "",
          "type": "uint256"
        }
      ],
      "stateMutability": "view",
      "type": "function"
    },
    {
      "inputs": [],
      "name": "getWavers",
      "outputs": [
        {
          "internalType": "address[]",
          "name": "",
          "type": "address[]"
        }
      ],
      "stateMutability": "view",
      "type": "function"
    },
    {
      "inputs": [],
      "name": "wave",
      "outputs": [],
      "stateMutability": "nonpayable",
      "type": "function"
    }
  ],
  "bytecode": "0x608060405234801561001057600080fd5b506100596040518060400160405280601e81526020017f436f6e747261746f20696e74656c6967656e74652063726961646f203a29000081525061005e60201b6102d91760201c565b6101e1565b6100fa81604051602401610072919061015f565b6040516020818303038152906040527f41304fac000000000000000000000000000000000000000000000000000000007bffffffffffffffffffffffffffffffffffffffffffffffffffffffff19166020820180517bffffffffffffffffffffffffffffffffffffffffffffffffffffffff83818316178352505050506100fd60201b60201c565b50565b60008151905060006a636f6e736f6c652e6c6f679050602083016000808483855afa5050505050565b600061013182610181565b61013b818561018c565b935061014b81856020860161019d565b610154816101d0565b840191505092915050565b600060208201905081810360008301526101798184610126565b905092915050565b600081519050919050565b600082825260208201905092915050565b60005b838110156101bb5780820151818401526020810190506101a0565b838111156101ca576000848401525b50505050565b6000601f19601f8301169050919050565b610945806101f06000396000f3fe608060405234801561001057600080fd5b50600436106100415760003560e01c8063635f29f8146100465780636fe15b44146100645780639a2cdc081461006e575b600080fd5b61004e61008c565b60405161005b919061064e565b60405180910390f35b61006c61011a565b005b6100766101d7565b6040516100839190610730565b60405180910390f35b6060600180548060200260200160405190810160405280929190818152602001828054801561011057602002820191906000526020600020905b8160009054906101000a900473ffffffffffffffffffffffffffffffffffffffff1673ffffffffffffffffffffffffffffffffffffffff16815260200190600101908083116100c6575b5050505050905090565b600160008082825461012c91906107a0565b925050819055506001339080600181540180825580915050600190039060005260206000200160009091909190916101000a81548173ffffffffffffffffffffffffffffffffffffffff021916908373ffffffffffffffffffffffffffffffffffffffff1602179055506101d56040518060400160405280601281526020017f2573206465752074636861757a696e686f21000000000000000000000000000081525033610372565b565b60006101fd6040518060600160405280602181526020016108ef6021913960005461040e565b60005b6001805490508110156102d0576102bd6040518060400160405280600881526020017f232564202d20257300000000000000000000000000000000000000000000000081525060018361025391906107a0565b6001848154811061028d577f4e487b7100000000000000000000000000000000000000000000000000000000600052603260045260246000fd5b9060005260206000200160009054906101000a900473ffffffffffffffffffffffffffffffffffffffff166104aa565b80806102c890610865565b915050610200565b50600054905090565b61036f816040516024016102ed9190610670565b6040516020818303038152906040527f41304fac000000000000000000000000000000000000000000000000000000007bffffffffffffffffffffffffffffffffffffffffffffffffffffffff19166020820180517bffffffffffffffffffffffffffffffffffffffffffffffffffffffff8381831617835250505050610549565b50565b61040a8282604051602401610388929190610692565b6040516020818303038152906040527f319af333000000000000000000000000000000000000000000000000000000007bffffffffffffffffffffffffffffffffffffffffffffffffffffffff19166020820180517bffffffffffffffffffffffffffffffffffffffffffffffffffffffff8381831617835250505050610549565b5050565b6104a682826040516024016104249291906106c2565b6040516020818303038152906040527f9710a9d0000000000000000000000000000000000000000000000000000000007bffffffffffffffffffffffffffffffffffffffffffffffffffffffff19166020820180517bffffffffffffffffffffffffffffffffffffffffffffffffffffffff8381831617835250505050610549565b5050565b6105448383836040516024016104c2939291906106f2565b6040516020818303038152906040527fe3849f79000000000000000000000000000000000000000000000000000000007bffffffffffffffffffffffffffffffffffffffffffffffffffffffff19166020820180517bffffffffffffffffffffffffffffffffffffffffffffffffffffffff8381831617835250505050610549565b505050565b60008151905060006a636f6e736f6c652e6c6f679050602083016000808483855afa5050505050565b600061057e838361058a565b60208301905092915050565b610593816107f6565b82525050565b6105a2816107f6565b82525050565b60006105b38261075b565b6105bd818561077e565b93506105c88361074b565b8060005b838110156105f95781516105e08882610572565b97506105eb83610771565b9250506001810190506105cc565b5085935050505092915050565b600061061182610766565b61061b818561078f565b935061062b818560208601610832565b610634816108dd565b840191505092915050565b61064881610828565b82525050565b6000602082019050818103600083015261066881846105a8565b905092915050565b6000602082019050818103600083015261068a8184610606565b905092915050565b600060408201905081810360008301526106ac8185610606565b90506106bb6020830184610599565b9392505050565b600060408201905081810360008301526106dc8185610606565b90506106eb602083018461063f565b9392505050565b6000606082019050818103600083015261070c8186610606565b905061071b602083018561063f565b6107286040830184610599565b949350505050565b6000602082019050610745600083018461063f565b92915050565b6000819050602082019050919050565b600081519050919050565b600081519050919050565b6000602082019050919050565b600082825260208201905092915050565b600082825260208201905092915050565b60006107ab82610828565b91506107b683610828565b9250827fffffffffffffffffffffffffffffffffffffffffffffffffffffffffffffffff038211156107eb576107ea6108ae565b5b828201905092915050565b600061080182610808565b9050919050565b600073ffffffffffffffffffffffffffffffffffffffff82169050919050565b6000819050919050565b60005b83811015610850578082015181840152602081019050610835565b8381111561085f576000848401525b50505050565b600061087082610828565b91507fffffffffffffffffffffffffffffffffffffffffffffffffffffffffffffffff8214156108a3576108a26108ae565b5b600182019050919050565b7f4e487b7100000000000000000000000000000000000000000000000000000000600052601160045260246000fd5b6000601f19601f830116905091905056fe54656d6f7320756d20746f74616c2064652025642074636861757a696e686f733aa2646970667358221220f381d43845d21c7aa1ea217ebb2b9df07b1fbaedeff76a7f246eca9a6c3c2abf64736f6c63430008000033",
  "linkReferences": {},
  "deployedLinkReferences": {}
}