{
  "_format": "hh-sol-artifact-1",
  "contractName": "WavePortal",
  "sourceName": "contracts/WavePortal.sol",
  "abi": [
    {
      "inputs": [],
      "stateMutability": "nonpayable",
      "type": "constructor"
    },
    {
      "inputs": [],
      "name": "getTotalWaves",
      "outputs": [
        {
          "internalType": "uint256",
          "name": "",
          "type": "uint256"
        }
      ],
      "stateMutability": "view",
      "type": "function"
    },
    {
      "inputs": [],
      "name": "wave",
      "outputs": [],
      "stateMutability": "nonpayable",
      "type": "function"
    }
  ],
  "bytecode": "0x608060405234801561001057600080fd5b506100596040518060400160405280601e81526020017f436f6e747261746f20696e74656c6967656e74652063726961646f203a29000081525061005e60201b6102221760201c565b6101e1565b6100fa81604051602401610072919061015f565b6040516020818303038152906040527f41304fac000000000000000000000000000000000000000000000000000000007bffffffffffffffffffffffffffffffffffffffffffffffffffffffff19166020820180517bffffffffffffffffffffffffffffffffffffffffffffffffffffffff83818316178352505050506100fd60201b60201c565b50565b60008151905060006a636f6e736f6c652e6c6f679050602083016000808483855afa5050505050565b600061013182610181565b61013b818561018c565b935061014b81856020860161019d565b610154816101d0565b840191505092915050565b600060208201905081810360008301526101798184610126565b905092915050565b600081519050919050565b600082825260208201905092915050565b60005b838110156101bb5780820151818401526020810190506101a0565b838111156101ca576000848401525b50505050565b6000601f19601f8301169050919050565b6107ae806101f06000396000f3fe608060405234801561001057600080fd5b50600436106100365760003560e01c80636fe15b441461003b5780639a2cdc0814610045575b600080fd5b610043610063565b005b61004d610120565b60405161005a91906105d2565b60405180910390f35b60016000808282546100759190610609565b925050819055506001339080600181540180825580915050600190039060005260206000200160009091909190916101000a81548173ffffffffffffffffffffffffffffffffffffffff021916908373ffffffffffffffffffffffffffffffffffffffff16021790555061011e6040518060400160405280601281526020017f2573206465752074636861757a696e686f210000000000000000000000000000815250336102bb565b565b600061014660405180606001604052806021815260200161075860219139600054610357565b60005b600180549050811015610219576102066040518060400160405280600881526020017f232564202d20257300000000000000000000000000000000000000000000000081525060018361019c9190610609565b600184815481106101d6577f4e487b7100000000000000000000000000000000000000000000000000000000600052603260045260246000fd5b9060005260206000200160009054906101000a900473ffffffffffffffffffffffffffffffffffffffff166103f3565b8080610211906106ce565b915050610149565b50600054905090565b6102b8816040516024016102369190610512565b6040516020818303038152906040527f41304fac000000000000000000000000000000000000000000000000000000007bffffffffffffffffffffffffffffffffffffffffffffffffffffffff19166020820180517bffffffffffffffffffffffffffffffffffffffffffffffffffffffff8381831617835250505050610492565b50565b61035382826040516024016102d1929190610534565b6040516020818303038152906040527f319af333000000000000000000000000000000000000000000000000000000007bffffffffffffffffffffffffffffffffffffffffffffffffffffffff19166020820180517bffffffffffffffffffffffffffffffffffffffffffffffffffffffff8381831617835250505050610492565b5050565b6103ef828260405160240161036d929190610564565b6040516020818303038152906040527f9710a9d0000000000000000000000000000000000000000000000000000000007bffffffffffffffffffffffffffffffffffffffffffffffffffffffff19166020820180517bffffffffffffffffffffffffffffffffffffffffffffffffffffffff8381831617835250505050610492565b5050565b61048d83838360405160240161040b93929190610594565b6040516020818303038152906040527fe3849f79000000000000000000000000000000000000000000000000000000007bffffffffffffffffffffffffffffffffffffffffffffffffffffffff19166020820180517bffffffffffffffffffffffffffffffffffffffffffffffffffffffff8381831617835250505050610492565b505050565b60008151905060006a636f6e736f6c652e6c6f679050602083016000808483855afa5050505050565b6104c48161065f565b82525050565b60006104d5826105ed565b6104df81856105f8565b93506104ef81856020860161069b565b6104f881610746565b840191505092915050565b61050c81610691565b82525050565b6000602082019050818103600083015261052c81846104ca565b905092915050565b6000604082019050818103600083015261054e81856104ca565b905061055d60208301846104bb565b9392505050565b6000604082019050818103600083015261057e81856104ca565b905061058d6020830184610503565b9392505050565b600060608201905081810360008301526105ae81866104ca565b90506105bd6020830185610503565b6105ca60408301846104bb565b949350505050565b60006020820190506105e76000830184610503565b92915050565b600081519050919050565b600082825260208201905092915050565b600061061482610691565b915061061f83610691565b9250827fffffffffffffffffffffffffffffffffffffffffffffffffffffffffffffffff0382111561065457610653610717565b5b828201905092915050565b600061066a82610671565b9050919050565b600073ffffffffffffffffffffffffffffffffffffffff82169050919050565b6000819050919050565b60005b838110156106b957808201518184015260208101905061069e565b838111156106c8576000848401525b50505050565b60006106d982610691565b91507fffffffffffffffffffffffffffffffffffffffffffffffffffffffffffffffff82141561070c5761070b610717565b5b600182019050919050565b7f4e487b7100000000000000000000000000000000000000000000000000000000600052601160045260246000fd5b6000601f19601f830116905091905056fe54656d6f7320756d20746f74616c2064652025642074636861757a696e686f733aa264697066735822122011e2bc5143f82c88d3a26ddf9dd9185624bebdec921ab4b2a1f407cc2b123be764736f6c63430008000033",
  "linkReferences": {},
  "deployedLinkReferences": {}
}